{
  "transactions": [
    {
      "hash": "0xb764f3793014cb407611d3252fdde3ebccd2d66d7a03cc7c3e5dab24b85e5ec7",
      "transactionType": "CALL",
      "contractName": null,
      "contractAddress": "0xa53a31b1fa483dec156575efbd0233c3bb14f54e",
      "function": "setAdmin(address,bool)",
      "arguments": [
        "0x9e3CF47Cb63f33BA726985537097bA04a18E1bF0",
        "true"
      ],
      "transaction": {
        "from": "0xd1b156294afa63d7d174d06d5a83e547d7a5aba9",
        "to": "0xa53a31b1fa483dec156575efbd0233c3bb14f54e",
        "gas": "0x10148",
        "value": "0x0",
        "input": "0x4b0bddd20000000000000000000000009e3cf47cb63f33ba726985537097ba04a18e1bf00000000000000000000000000000000000000000000000000000000000000001",
        "nonce": "0x56",
        "chainId": "0x128"
      },
      "additionalContracts": [],
      "isFixedGasLimit": false
    }
  ],
  "receipts": [
    {
      "status": "0x1",
      "cumulativeGasUsed": "0xcdd4",
      "logs": [
        {
          "address": "0xa53a31b1fa483dec156575efbd0233c3bb14f54e",
          "topics": [
            "0x44d6d25963f097ad14f29f06854a01f575648a1ef82f30e562ccd3889717e339",
            "0x0000000000000000000000009e3cf47cb63f33ba726985537097ba04a18e1bf0"
          ],
          "data": "0x",
          "blockHash": "0x343cfc141a6b041466c86d436adab2d8efde23c267a30ae8f14a885c0b5ff696",
          "blockNumber": "0x185e510",
          "transactionHash": "0xb764f3793014cb407611d3252fdde3ebccd2d66d7a03cc7c3e5dab24b85e5ec7",
          "transactionIndex": "0x6",
          "logIndex": "0x0",
          "removed": false
        }
      ],
      "logsBloom": "0x00000000000000000000000000000000000000000000000000000000000004400000000000000000000000000000000000000000000000000000000000000000000000000000000000000000000000000000000000000000000000000000000000000000000000000000000000000000000000000000000000000000000000800000000004000000000000000000000000000000000000008000000000000000000000000000000000000000000000000000000000000020000000000000000000004000000000000000000000000000000000040000000000000000000000000000000000000000000000000000000000000000000000100000000000000000",
      "type": "0x0",
      "transactionHash": "0xb764f3793014cb407611d3252fdde3ebccd2d66d7a03cc7c3e5dab24b85e5ec7",
      "transactionIndex": "0x6",
      "blockHash": "0x343cfc141a6b041466c86d436adab2d8efde23c267a30ae8f14a885c0b5ff696",
      "blockNumber": "0x185e510",
      "gasUsed": "0xcdd4",
      "effectiveGasPrice": "0x5acdcfbc00",
      "from": "0xd1b156294afa63d7d174d06d5a83e547d7a5aba9",
      "to": "0xa53a31b1fa483dec156575efbd0233c3bb14f54e",
      "contractAddress": "0xa53a31b1fa483dec156575efbd0233c3bb14f54e",
      "root": "0x56e81f171bcc55a6ff8345e692c0f86e5b48e01b996cadc001622fb5e363b421"
    }
  ],
  "libraries": [],
  "pending": [],
  "returns": {},
  "timestamp": 1759150316,
  "chain": 296,
  "commit": "e7bb182"
}