{
  "transactions": [
    {
      "hash": "0x0040d9e7254e813148bbf315663f3f8839c01895bcbec89461e9a289f802b095",
      "transactionType": "CALL",
      "contractName": null,
      "contractAddress": "0x0ac883919df550f6a16b42af9a04d4900fb38ea0",
      "function": "batchSetKYC(address[],bool)",
      "arguments": [
        "[0x1111111111111111111111111111111111111111, 0x2222222222222222222222222222222222222222, 0x3333333333333333333333333333333333333333]",
        "true"
      ],
      "transaction": {
        "from": "0xd1b156294afa63d7d174d06d5a83e547d7a5aba9",
        "to": "0x0ac883919df550f6a16b42af9a04d4900fb38ea0",
        "gas": "0x37864",
        "value": "0x0",
        "input": "0x9b3c6b22000000000000000000000000000000000000000000000000000000000000004000000000000000000000000000000000000000000000000000000000000000010000000000000000000000000000000000000000000000000000000000000003000000000000000000000000111111111111111111111111111111111111111100000000000000000000000022222222222222222222222222222222222222220000000000000000000000003333333333333333333333333333333333333333",
        "nonce": "0x6d",
        "chainId": "0x128"
      },
      "additionalContracts": [],
      "isFixedGasLimit": false
    }
  ],
  "receipts": [
    {
      "status": "0x1",
      "cumulativeGasUsed": "0x2832f",
      "logs": [
        {
          "address": "0x0ac883919df550f6a16b42af9a04d4900fb38ea0",
          "topics": [
            "0x7abd35ff33891ab3686be6791d9262c0aace8d89f28fcf30262d6e1e06f60cb4",
            "0x0000000000000000000000001111111111111111111111111111111111111111"
          ],
          "data": "0x00000000000000000000000000000000000000000000000000000000000000010000000000000000000000000000000000000000000000000000000068fdb225",
          "blockHash": "0xdf2a992b9758f9de38034c406c4308a041c470e3fdee346b036c19e528ac5bf2",
          "blockNumber": "0x1977d34",
          "blockTimestamp": "0x68fdb227",
          "transactionHash": "0x0040d9e7254e813148bbf315663f3f8839c01895bcbec89461e9a289f802b095",
          "transactionIndex": "0x6",
          "logIndex": "0x0",
          "removed": false
        },
        {
          "address": "0x0ac883919df550f6a16b42af9a04d4900fb38ea0",
          "topics": [
            "0x7abd35ff33891ab3686be6791d9262c0aace8d89f28fcf30262d6e1e06f60cb4",
            "0x0000000000000000000000002222222222222222222222222222222222222222"
          ],
          "data": "0x00000000000000000000000000000000000000000000000000000000000000010000000000000000000000000000000000000000000000000000000068fdb225",
          "blockHash": "0xdf2a992b9758f9de38034c406c4308a041c470e3fdee346b036c19e528ac5bf2",
          "blockNumber": "0x1977d34",
          "blockTimestamp": "0x68fdb227",
          "transactionHash": "0x0040d9e7254e813148bbf315663f3f8839c01895bcbec89461e9a289f802b095",
          "transactionIndex": "0x6",
          "logIndex": "0x1",
          "removed": false
        },
        {
          "address": "0x0ac883919df550f6a16b42af9a04d4900fb38ea0",
          "topics": [
            "0x7abd35ff33891ab3686be6791d9262c0aace8d89f28fcf30262d6e1e06f60cb4",
            "0x0000000000000000000000003333333333333333333333333333333333333333"
          ],
          "data": "0x00000000000000000000000000000000000000000000000000000000000000010000000000000000000000000000000000000000000000000000000068fdb225",
          "blockHash": "0xdf2a992b9758f9de38034c406c4308a041c470e3fdee346b036c19e528ac5bf2",
          "blockNumber": "0x1977d34",
          "blockTimestamp": "0x68fdb227",
          "transactionHash": "0x0040d9e7254e813148bbf315663f3f8839c01895bcbec89461e9a289f802b095",
          "transactionIndex": "0x6",
          "logIndex": "0x2",
          "removed": false
        }
      ],
      "logsBloom": "0x00000000000000800000000000000002000000000000000000000000000000000000000000000000000000000000000000080000000004000000000020000000000000000000000000002000000000000000000008000000000000000000000000000000000000000000000000000000000000000000000000000000000200000000000000000000000000000000000000000000000000000000000000000000240000000000000000000000000000000000000000000000004000000000000000010000000000000000000000000000000000001000000000000000000000000000000000000000000000000000000000000800100000000000000000000000",
      "type": "0x0",
      "transactionHash": "0x0040d9e7254e813148bbf315663f3f8839c01895bcbec89461e9a289f802b095",
      "transactionIndex": "0x6",
      "blockHash": "0xdf2a992b9758f9de38034c406c4308a041c470e3fdee346b036c19e528ac5bf2",
      "blockNumber": "0x1977d34",
      "gasUsed": "0x2832f",
      "effectiveGasPrice": "0x721646a400",
      "from": "0xd1b156294afa63d7d174d06d5a83e547d7a5aba9",
      "to": "0x0ac883919df550f6a16b42af9a04d4900fb38ea0",
      "contractAddress": "0x0ac883919df550f6a16b42af9a04d4900fb38ea0",
      "root": "0x56e81f171bcc55a6ff8345e692c0f86e5b48e01b996cadc001622fb5e363b421"
    }
  ],
  "libraries": [],
  "pending": [],
  "returns": {},
  "timestamp": 1761456683,
  "chain": 296,
  "commit": "ab599d8"
}