{
  "transactions": [
    {
      "hash": "0xa552b3b2720627fbf62e0bb3ba5c03389db8f6f96b26e270952ecfc5cd7815ff",
      "transactionType": "CALL",
      "contractName": null,
      "contractAddress": "0xa53a31b1fa483dec156575efbd0233c3bb14f54e",
      "function": "batchSetKYC(address[],bool)",
      "arguments": [
        "[0x1111111111111111111111111111111111111111, 0x2222222222222222222222222222222222222222, 0x3333333333333333333333333333333333333333]",
        "true"
      ],
      "transaction": {
        "from": "0xd1b156294afa63d7d174d06d5a83e547d7a5aba9",
        "to": "0xa53a31b1fa483dec156575efbd0233c3bb14f54e",
        "gas": "0x37864",
        "value": "0x0",
        "input": "0x9b3c6b22000000000000000000000000000000000000000000000000000000000000004000000000000000000000000000000000000000000000000000000000000000010000000000000000000000000000000000000000000000000000000000000003000000000000000000000000111111111111111111111111111111111111111100000000000000000000000022222222222222222222222222222222222222220000000000000000000000003333333333333333333333333333333333333333",
        "nonce": "0x55",
        "chainId": "0x128"
      },
      "additionalContracts": [],
      "isFixedGasLimit": false
    }
  ],
  "receipts": [
    {
      "status": "0x1",
      "cumulativeGasUsed": "0x2c6b7",
      "logs": [
        {
          "address": "0xa53a31b1fa483dec156575efbd0233c3bb14f54e",
          "topics": [
            "0x7abd35ff33891ab3686be6791d9262c0aace8d89f28fcf30262d6e1e06f60cb4",
            "0x0000000000000000000000001111111111111111111111111111111111111111"
          ],
          "data": "0x00000000000000000000000000000000000000000000000000000000000000010000000000000000000000000000000000000000000000000000000068da7bdf",
          "blockHash": "0xb4c29cc5b3857c21f9230ede00c0282f9e69ec0e1abb3c89c4122f4f59142611",
          "blockNumber": "0x185e28c",
          "transactionHash": "0xa552b3b2720627fbf62e0bb3ba5c03389db8f6f96b26e270952ecfc5cd7815ff",
          "transactionIndex": "0x40",
          "logIndex": "0x0",
          "removed": false
        },
        {
          "address": "0xa53a31b1fa483dec156575efbd0233c3bb14f54e",
          "topics": [
            "0x7abd35ff33891ab3686be6791d9262c0aace8d89f28fcf30262d6e1e06f60cb4",
            "0x0000000000000000000000002222222222222222222222222222222222222222"
          ],
          "data": "0x00000000000000000000000000000000000000000000000000000000000000010000000000000000000000000000000000000000000000000000000068da7bdf",
          "blockHash": "0xb4c29cc5b3857c21f9230ede00c0282f9e69ec0e1abb3c89c4122f4f59142611",
          "blockNumber": "0x185e28c",
          "transactionHash": "0xa552b3b2720627fbf62e0bb3ba5c03389db8f6f96b26e270952ecfc5cd7815ff",
          "transactionIndex": "0x40",
          "logIndex": "0x1",
          "removed": false
        },
        {
          "address": "0xa53a31b1fa483dec156575efbd0233c3bb14f54e",
          "topics": [
            "0x7abd35ff33891ab3686be6791d9262c0aace8d89f28fcf30262d6e1e06f60cb4",
            "0x0000000000000000000000003333333333333333333333333333333333333333"
          ],
          "data": "0x00000000000000000000000000000000000000000000000000000000000000010000000000000000000000000000000000000000000000000000000068da7bdf",
          "blockHash": "0xb4c29cc5b3857c21f9230ede00c0282f9e69ec0e1abb3c89c4122f4f59142611",
          "blockNumber": "0x185e28c",
          "transactionHash": "0xa552b3b2720627fbf62e0bb3ba5c03389db8f6f96b26e270952ecfc5cd7815ff",
          "transactionIndex": "0x40",
          "logIndex": "0x2",
          "removed": false
        }
      ],
      "logsBloom": "0x00000000000000800000000000000002000000000000000000000000000004000000000000000000000000000000000000080000000004000000000020000000000000000000000000002000000000000000000000000000000000000000000000000000000000000000000000000000000000000000000000000000000200800000000000000000000000000000000000000000000000000000000000000000240000000000000000000000000000000000000000000000000000000000000000000000000000000000000000000000000000041000000000000000000000000000000000000000000000000000000000000800100000000000000000000000",
      "type": "0x0",
      "transactionHash": "0xa552b3b2720627fbf62e0bb3ba5c03389db8f6f96b26e270952ecfc5cd7815ff",
      "transactionIndex": "0x40",
      "blockHash": "0xb4c29cc5b3857c21f9230ede00c0282f9e69ec0e1abb3c89c4122f4f59142611",
      "blockNumber": "0x185e28c",
      "gasUsed": "0x2c6b7",
      "effectiveGasPrice": "0x5acdcfbc00",
      "from": "0xd1b156294afa63d7d174d06d5a83e547d7a5aba9",
      "to": "0xa53a31b1fa483dec156575efbd0233c3bb14f54e",
      "contractAddress": "0xa53a31b1fa483dec156575efbd0233c3bb14f54e",
      "root": "0x56e81f171bcc55a6ff8345e692c0f86e5b48e01b996cadc001622fb5e363b421"
    }
  ],
  "libraries": [],
  "pending": [],
  "returns": {},
  "timestamp": 1759149027,
  "chain": 296,
  "commit": "e7bb182"
}