{
  "transactions": [
    {
      "hash": "0x48b6c975e93e4e23ed93b7d83eb5935b69093b85732f1d038208ec7066b7d36b",
      "transactionType": "CALL",
      "contractName": null,
      "contractAddress": "0x990e1948b0ee9a147e549031c90689593dbcee5e",
      "function": "setPlatformFee(uint256)",
      "arguments": [
        "250"
      ],
      "transaction": {
        "from": "0xd1b156294afa63d7d174d06d5a83e547d7a5aba9",
        "to": "0x990e1948b0ee9a147e549031c90689593dbcee5e",
        "gas": "0xaf18",
        "value": "0x0",
        "input": "0x12e8e2c300000000000000000000000000000000000000000000000000000000000000fa",
        "nonce": "0x80",
        "chainId": "0x128"
      },
      "additionalContracts": [],
      "isFixedGasLimit": false
    }
  ],
  "receipts": [
    {
      "status": "0x1",
      "cumulativeGasUsed": "0x7ec4",
      "logs": [
        {
          "address": "0x990e1948b0ee9a147e549031c90689593dbcee5e",
          "topics": [
            "0x45610d581145924dd7090a5017e5f2b1d6f42213bb2e95707ff86846bbfcb1ca"
          ],
          "data": "0x00000000000000000000000000000000000000000000000000000000000000fa",
          "blockHash": "0x636e1e469bb1e6e5131388b940c9a050f1b2f5253d786ecfabcf59d6de9582fe",
          "blockNumber": "0x19795e0",
          "blockTimestamp": "0x68fde37e",
          "transactionHash": "0x48b6c975e93e4e23ed93b7d83eb5935b69093b85732f1d038208ec7066b7d36b",
          "transactionIndex": "0xb",
          "logIndex": "0x0",
          "removed": false
        }
      ],
      "logsBloom": "0x00000000000000000002000000000000010000000000000000000000000000000000000000000000000000000000000000000000000000000080000000000000000000000000000000000000000000000000000000000000000000000000000000000000000000400000000000000000000000000000000000000000000000000000000040000000000000000000000000000000080000000000000000000000000000000000000000000000000000000000000000000000000000000000000000000000000000000000000000000000000000000000000000000000000000000000000000000000000000000000000000000000000000000000000000000000",
      "type": "0x0",
      "transactionHash": "0x48b6c975e93e4e23ed93b7d83eb5935b69093b85732f1d038208ec7066b7d36b",
      "transactionIndex": "0xb",
      "blockHash": "0x636e1e469bb1e6e5131388b940c9a050f1b2f5253d786ecfabcf59d6de9582fe",
      "blockNumber": "0x19795e0",
      "gasUsed": "0x7ec4",
      "effectiveGasPrice": "0x6fc23ac000",
      "from": "0xd1b156294afa63d7d174d06d5a83e547d7a5aba9",
      "to": "0x990e1948b0ee9a147e549031c90689593dbcee5e",
      "contractAddress": "0x990e1948b0ee9a147e549031c90689593dbcee5e",
      "root": "0x56e81f171bcc55a6ff8345e692c0f86e5b48e01b996cadc001622fb5e363b421"
    }
  ],
  "libraries": [],
  "pending": [],
  "returns": {},
  "timestamp": 1761469315,
  "chain": 296,
  "commit": "ab599d8"
}