{
  "transactions": [
    {
      "hash": "0xcfb656549e093e9061faaed74b04d8278f18d9c6bb9d88d9aa97746b76f5f5b5",
      "transactionType": "CALL",
      "contractName": null,
      "contractAddress": "0x9e3cf47cb63f33ba726985537097ba04a18e1bf0",
      "function": "distributeTokens(uint256,address,uint256)",
      "arguments": [
        "0",
        "0xD1B156294aFa63d7d174D06D5A83e547d7a5abA9",
        "100000000000000000000000"
      ],
      "transaction": {
        "from": "0xd1b156294afa63d7d174d06d5a83e547d7a5aba9",
        "to": "0x9e3cf47cb63f33ba726985537097ba04a18e1bf0",
        "gas": "0xb3079",
        "value": "0x0",
        "input": "0x8a5296330000000000000000000000000000000000000000000000000000000000000000000000000000000000000000d1b156294afa63d7d174d06d5a83e547d7a5aba900000000000000000000000000000000000000000000152d02c7e14af6800000",
        "nonce": "0x5a",
        "chainId": "0x128"
      },
      "additionalContracts": [],
      "isFixedGasLimit": false
    }
  ],
  "receipts": [
    {
      "status": "0x1",
      "cumulativeGasUsed": "0x8f394",
      "logs": [
        {
          "address": "0xbf2a7704d5ddf17ddd9cb8e91ea52bb8593315b0",
          "topics": [
            "0xddf252ad1be2c89b69c2b068fc378daa952ba7f163c4a11628f55a4df523b3ef",
            "0x0000000000000000000000009e3cf47cb63f33ba726985537097ba04a18e1bf0",
            "0x000000000000000000000000d1b156294afa63d7d174d06d5a83e547d7a5aba9"
          ],
          "data": "0x00000000000000000000000000000000000000000000152d02c7e14af6800000",
          "blockHash": "0x19100f6d37bf62f0b2d08a1b924e4e63bd561c018ef0926a87e7ad201728a669",
          "blockNumber": "0x185e5c2",
          "transactionHash": "0xcfb656549e093e9061faaed74b04d8278f18d9c6bb9d88d9aa97746b76f5f5b5",
          "transactionIndex": "0x5",
          "logIndex": "0x0",
          "removed": false
        },
        {
          "address": "0x6d02419484f0587d21a27600048826da8ee9d155",
          "topics": [
            "0xe4b25ac9e5d0cb3673655cd0cde16c7f8cd681c34f02fb0c6b5143f83fe85534",
            "0x0000000000000000000000009e3cf47cb63f33ba726985537097ba04a18e1bf0",
            "0x000000000000000000000000bf2a7704d5ddf17ddd9cb8e91ea52bb8593315b0"
          ],
          "data": "0x000000000000000000000000000000000000000000000000000000000000000000000000000000000000000000000000000000000000be951906eba2aa800000",
          "blockHash": "0x19100f6d37bf62f0b2d08a1b924e4e63bd561c018ef0926a87e7ad201728a669",
          "blockNumber": "0x185e5c2",
          "transactionHash": "0xcfb656549e093e9061faaed74b04d8278f18d9c6bb9d88d9aa97746b76f5f5b5",
          "transactionIndex": "0x5",
          "logIndex": "0x1",
          "removed": false
        },
        {
          "address": "0x6d02419484f0587d21a27600048826da8ee9d155",
          "topics": [
            "0xe4b25ac9e5d0cb3673655cd0cde16c7f8cd681c34f02fb0c6b5143f83fe85534",
            "0x000000000000000000000000d1b156294afa63d7d174d06d5a83e547d7a5aba9",
            "0x000000000000000000000000bf2a7704d5ddf17ddd9cb8e91ea52bb8593315b0"
          ],
          "data": "0x000000000000000000000000000000000000000000000000000000000000000000000000000000000000000000000000000000000000152d02c7e14af6800000",
          "blockHash": "0x19100f6d37bf62f0b2d08a1b924e4e63bd561c018ef0926a87e7ad201728a669",
          "blockNumber": "0x185e5c2",
          "transactionHash": "0xcfb656549e093e9061faaed74b04d8278f18d9c6bb9d88d9aa97746b76f5f5b5",
          "transactionIndex": "0x5",
          "logIndex": "0x2",
          "removed": false
        },
        {
          "address": "0x9e3cf47cb63f33ba726985537097ba04a18e1bf0",
          "topics": [
            "0xb8bd97753f33619a3d40bd37523d90e68ffcecd3da1cc8076c0d1e02a8272c8e",
            "0x0000000000000000000000000000000000000000000000000000000000000000",
            "0x000000000000000000000000d1b156294afa63d7d174d06d5a83e547d7a5aba9"
          ],
          "data": "0x00000000000000000000000000000000000000000000152d02c7e14af6800000",
          "blockHash": "0x19100f6d37bf62f0b2d08a1b924e4e63bd561c018ef0926a87e7ad201728a669",
          "blockNumber": "0x185e5c2",
          "transactionHash": "0xcfb656549e093e9061faaed74b04d8278f18d9c6bb9d88d9aa97746b76f5f5b5",
          "transactionIndex": "0x5",
          "logIndex": "0x3",
          "removed": false
        }
      ],
      "logsBloom": "0x20100000000000000000000000000000000000000001000008000000000000400000000000000700000000040000000001000000000000000000000000000000000000000000000000000028000000000000000000000000000000000000000000000000020000000000014000000800000000000000000000000010080000000000000000000000c00000000000000000000000000000000000000000000000000000000000000000000000000000001000000000000000000000000000000000004002000000000000000000000000000000000000020000000000008020002000000000000000000000000100080000000000000000100000000000000000",
      "type": "0x0",
      "transactionHash": "0xcfb656549e093e9061faaed74b04d8278f18d9c6bb9d88d9aa97746b76f5f5b5",
      "transactionIndex": "0x5",
      "blockHash": "0x19100f6d37bf62f0b2d08a1b924e4e63bd561c018ef0926a87e7ad201728a669",
      "blockNumber": "0x185e5c2",
      "gasUsed": "0x8f394",
      "effectiveGasPrice": "0x5acdcfbc00",
      "from": "0xd1b156294afa63d7d174d06d5a83e547d7a5aba9",
      "to": "0x9e3cf47cb63f33ba726985537097ba04a18e1bf0",
      "contractAddress": "0x9e3cf47cb63f33ba726985537097ba04a18e1bf0",
      "root": "0x56e81f171bcc55a6ff8345e692c0f86e5b48e01b996cadc001622fb5e363b421"
    }
  ],
  "libraries": [],
  "pending": [],
  "returns": {},
  "timestamp": 1759150670,
  "chain": 296,
  "commit": "e7bb182"
}