{
  "transactions": [
    {
      "hash": "0x8bdcf287ba8be052359e2ca2be2c1b367f32e6906ffa44e4de257cff015f4d6d",
      "transactionType": "CALL",
      "contractName": null,
      "contractAddress": "0x1778a0ce19f7d4b693176ffb8d5ab295cfc54a48",
      "function": "setPropertyManager(address,bool)",
      "arguments": [
        "0xD1B156294aFa63d7d174D06D5A83e547d7a5abA9",
        "true"
      ],
      "transaction": {
        "from": "0xd1b156294afa63d7d174d06d5a83e547d7a5aba9",
        "to": "0x1778a0ce19f7d4b693176ffb8d5ab295cfc54a48",
        "gas": "0x9e98",
        "value": "0x0",
        "input": "0xb521959f000000000000000000000000d1b156294afa63d7d174d06d5a83e547d7a5aba90000000000000000000000000000000000000000000000000000000000000001",
        "nonce": "0x7f",
        "chainId": "0x128"
      },
      "additionalContracts": [],
      "isFixedGasLimit": false
    }
  ],
  "receipts": [
    {
      "status": "0x1",
      "cumulativeGasUsed": "0x6c71",
      "logs": [
        {
          "address": "0x1778a0ce19f7d4b693176ffb8d5ab295cfc54a48",
          "topics": [
            "0xacb124fdc9ebf46a7472dad04cd928acba27aa00bdebcddc66c6dfc301dfffb0",
            "0x000000000000000000000000d1b156294afa63d7d174d06d5a83e547d7a5aba9"
          ],
          "data": "0x",
          "blockHash": "0x5d459a6b469c0a712c0cad625e236b700d2b0c94a4539ec3e6c2d6faeb7ac744",
          "blockNumber": "0x19795c9",
          "blockTimestamp": "0x68fde351",
          "transactionHash": "0x8bdcf287ba8be052359e2ca2be2c1b367f32e6906ffa44e4de257cff015f4d6d",
          "transactionIndex": "0x6",
          "logIndex": "0x0",
          "removed": false
        }
      ],
      "logsBloom": "0x00000000000000000000000000000000000000000000000000000000000000000000000000000001000000000000000080000000000000001000000000000000000000000000020000000000000000000000000000000000000000000000000000000000000000000000000000000000000000000000000000000000080000000040000000000000400000000000000000000000000000000000000000000000000000000000000000000000000000000000000000000000000000000000000000000000000000000000000000000000000000000000020000000000000000000000000000000000000000000000000000000000000000100000000000000000",
      "type": "0x0",
      "transactionHash": "0x8bdcf287ba8be052359e2ca2be2c1b367f32e6906ffa44e4de257cff015f4d6d",
      "transactionIndex": "0x6",
      "blockHash": "0x5d459a6b469c0a712c0cad625e236b700d2b0c94a4539ec3e6c2d6faeb7ac744",
      "blockNumber": "0x19795c9",
      "gasUsed": "0x6c71",
      "effectiveGasPrice": "0x6fc23ac000",
      "from": "0xd1b156294afa63d7d174d06d5a83e547d7a5aba9",
      "to": "0x1778a0ce19f7d4b693176ffb8d5ab295cfc54a48",
      "contractAddress": "0x1778a0ce19f7d4b693176ffb8d5ab295cfc54a48",
      "root": "0x56e81f171bcc55a6ff8345e692c0f86e5b48e01b996cadc001622fb5e363b421"
    }
  ],
  "libraries": [],
  "pending": [],
  "returns": {},
  "timestamp": 1761469269,
  "chain": 296,
  "commit": "ab599d8"
}