{
  "transactions": [
    {
      "hash": "0x9d9258beff5b767697bffef3b1fbb9bec6c40f197d1370444b3f700946f968cf",
      "transactionType": "CALL",
      "contractName": null,
      "contractAddress": "0x0ac883919df550f6a16b42af9a04d4900fb38ea0",
      "function": "setPropertyManager(address,bool)",
      "arguments": [
        "0xD1B156294aFa63d7d174D06D5A83e547d7a5abA9",
        "true"
      ],
      "transaction": {
        "from": "0xd1b156294afa63d7d174d06d5a83e547d7a5aba9",
        "to": "0x0ac883919df550f6a16b42af9a04d4900fb38ea0",
        "gas": "0x9e98",
        "value": "0x0",
        "input": "0xb521959f000000000000000000000000d1b156294afa63d7d174d06d5a83e547d7a5aba90000000000000000000000000000000000000000000000000000000000000001",
        "nonce": "0x69",
        "chainId": "0x128"
      },
      "additionalContracts": [],
      "isFixedGasLimit": false
    }
  ],
  "receipts": [
    {
      "status": "0x1",
      "cumulativeGasUsed": "0x6c71",
      "logs": [
        {
          "address": "0x0ac883919df550f6a16b42af9a04d4900fb38ea0",
          "topics": [
            "0xacb124fdc9ebf46a7472dad04cd928acba27aa00bdebcddc66c6dfc301dfffb0",
            "0x000000000000000000000000d1b156294afa63d7d174d06d5a83e547d7a5aba9"
          ],
          "data": "0x",
          "blockHash": "0x2869cd33fba75cf3b8cf802db89a3cb8e28ab6d87d37fc290cd336abf2bb2b57",
          "blockNumber": "0x1977cb4",
          "blockTimestamp": "0x68fdb126",
          "transactionHash": "0x9d9258beff5b767697bffef3b1fbb9bec6c40f197d1370444b3f700946f968cf",
          "transactionIndex": "0x32",
          "logIndex": "0x0",
          "removed": false
        }
      ],
      "logsBloom": "0x00000000000000000000000000000000000000000000000000000000000000000000000000000000000000000000000080000000000000000000000000000000000000000000020000000000000000000000000008000000000000000000000000000000000000000000000000000000000000000000000000000000080000000000000000000000400000000000000000000000000000000000000000000000000000000000000000000000000000000000000000000000004000000000000000010000000000000000000000000000000000000000020000000000000000000000000000000000000000000000000000000000000000100000000000000000",
      "type": "0x0",
      "transactionHash": "0x9d9258beff5b767697bffef3b1fbb9bec6c40f197d1370444b3f700946f968cf",
      "transactionIndex": "0x32",
      "blockHash": "0x2869cd33fba75cf3b8cf802db89a3cb8e28ab6d87d37fc290cd336abf2bb2b57",
      "blockNumber": "0x1977cb4",
      "gasUsed": "0x6c71",
      "effectiveGasPrice": "0x721646a400",
      "from": "0xd1b156294afa63d7d174d06d5a83e547d7a5aba9",
      "to": "0x0ac883919df550f6a16b42af9a04d4900fb38ea0",
      "contractAddress": "0x0ac883919df550f6a16b42af9a04d4900fb38ea0",
      "root": "0x56e81f171bcc55a6ff8345e692c0f86e5b48e01b996cadc001622fb5e363b421"
    }
  ],
  "libraries": [],
  "pending": [],
  "returns": {},
  "timestamp": 1761456430,
  "chain": 296,
  "commit": "ab599d8"
}