{
  "transactions": [
    {
      "hash": "0x78402ae418e16b4a20a191cd398d023b2daf2ecc5a5af41d0530713605a0f32a",
      "transactionType": "CALL",
      "contractName": null,
      "contractAddress": "0x1778a0ce19f7d4b693176ffb8d5ab295cfc54a48",
      "function": "setAdmin(address,bool)",
      "arguments": [
        "0xD1B156294aFa63d7d174D06D5A83e547d7a5abA9",
        "true"
      ],
      "transaction": {
        "from": "0xd1b156294afa63d7d174d06d5a83e547d7a5aba9",
        "to": "0x1778a0ce19f7d4b693176ffb8d5ab295cfc54a48",
        "gas": "0x9ebb",
        "value": "0x0",
        "input": "0x4b0bddd2000000000000000000000000d1b156294afa63d7d174d06d5a83e547d7a5aba90000000000000000000000000000000000000000000000000000000000000001",
        "nonce": "0x7e",
        "chainId": "0x128"
      },
      "additionalContracts": [],
      "isFixedGasLimit": false
    }
  ],
  "receipts": [
    {
      "status": "0x1",
      "cumulativeGasUsed": "0x6c89",
      "logs": [
        {
          "address": "0x1778a0ce19f7d4b693176ffb8d5ab295cfc54a48",
          "topics": [
            "0x44d6d25963f097ad14f29f06854a01f575648a1ef82f30e562ccd3889717e339",
            "0x000000000000000000000000d1b156294afa63d7d174d06d5a83e547d7a5aba9"
          ],
          "data": "0x",
          "blockHash": "0x4e3fbc3a3606a8d584fed5f70c5e21e518bdc1f2f5d78904dd24cc3a814950b9",
          "blockNumber": "0x19795b6",
          "blockTimestamp": "0x68fde32b",
          "transactionHash": "0x78402ae418e16b4a20a191cd398d023b2daf2ecc5a5af41d0530713605a0f32a",
          "transactionIndex": "0x9",
          "logIndex": "0x0",
          "removed": false
        }
      ],
      "logsBloom": "0x00000000000000000000000000000000000000000000000000000000000000000000000000000001000000000000000000000000000000001000000000000000000000000000000000000000000000000000000000000000000000000000000000000000000000000000000000000000000000000000000000000000080000000040000004000000400000000000000000000000000000008000000000000000000000000000000000000000000000000000000000000020000000000000000000000000000000000000000000000000000000000000020000000000000000000000000000000000000000000000000000000000000000000000000000000000",
      "type": "0x0",
      "transactionHash": "0x78402ae418e16b4a20a191cd398d023b2daf2ecc5a5af41d0530713605a0f32a",
      "transactionIndex": "0x9",
      "blockHash": "0x4e3fbc3a3606a8d584fed5f70c5e21e518bdc1f2f5d78904dd24cc3a814950b9",
      "blockNumber": "0x19795b6",
      "gasUsed": "0x6c89",
      "effectiveGasPrice": "0x721646a400",
      "from": "0xd1b156294afa63d7d174d06d5a83e547d7a5aba9",
      "to": "0x1778a0ce19f7d4b693176ffb8d5ab295cfc54a48",
      "contractAddress": "0x1778a0ce19f7d4b693176ffb8d5ab295cfc54a48",
      "root": "0x56e81f171bcc55a6ff8345e692c0f86e5b48e01b996cadc001622fb5e363b421"
    }
  ],
  "libraries": [],
  "pending": [],
  "returns": {},
  "timestamp": 1761469232,
  "chain": 296,
  "commit": "ab599d8"
}