{
  "transactions": [
    {
      "hash": "0x8c1f7a3c5d7d215b182ef48b75d0a5ca5636a39ea9de2029c97fdb79d50c263c",
      "transactionType": "CALL",
      "contractName": null,
      "contractAddress": "0xa53a31b1fa483dec156575efbd0233c3bb14f54e",
      "function": "setAdmin(address,bool)",
      "arguments": [
        "0xD1B156294aFa63d7d174D06D5A83e547d7a5abA9",
        "true"
      ],
      "transaction": {
        "from": "0xd1b156294afa63d7d174d06d5a83e547d7a5aba9",
        "to": "0xa53a31b1fa483dec156575efbd0233c3bb14f54e",
        "gas": "0x9ebb",
        "value": "0x0",
        "input": "0x4b0bddd2000000000000000000000000d1b156294afa63d7d174d06d5a83e547d7a5aba90000000000000000000000000000000000000000000000000000000000000001",
        "nonce": "0x50",
        "chainId": "0x128"
      },
      "additionalContracts": [],
      "isFixedGasLimit": false
    }
  ],
  "receipts": [
    {
      "status": "0x1",
      "cumulativeGasUsed": "0x7efc",
      "logs": [
        {
          "address": "0xa53a31b1fa483dec156575efbd0233c3bb14f54e",
          "topics": [
            "0x44d6d25963f097ad14f29f06854a01f575648a1ef82f30e562ccd3889717e339",
            "0x000000000000000000000000d1b156294afa63d7d174d06d5a83e547d7a5aba9"
          ],
          "data": "0x",
          "blockHash": "0x5dd757fce2eafdb6253f30c843e23449ed5549b597c126492cc6bd58e8a70bf9",
          "blockNumber": "0x185e1f8",
          "transactionHash": "0x8c1f7a3c5d7d215b182ef48b75d0a5ca5636a39ea9de2029c97fdb79d50c263c",
          "transactionIndex": "0x1",
          "logIndex": "0x0",
          "removed": false
        }
      ],
      "logsBloom": "0x00000000000000000000000000000000000000000000000000000000000004000000000000000000000000000000000000000000000000000000000000000000000000000000000000000000000000000000000000000000000000000000000000000000000000000000000000000000000000000000000000000000080000800000000004000000400000000000000000000000000000008000000000000000000000000000000000000000000000000000000000000020000000000000000000000000000000000000000000000000000000040000020000000000000000000000000000000000000000000000000000000000000000000000000000000000",
      "type": "0x0",
      "transactionHash": "0x8c1f7a3c5d7d215b182ef48b75d0a5ca5636a39ea9de2029c97fdb79d50c263c",
      "transactionIndex": "0x1",
      "blockHash": "0x5dd757fce2eafdb6253f30c843e23449ed5549b597c126492cc6bd58e8a70bf9",
      "blockNumber": "0x185e1f8",
      "gasUsed": "0x7efc",
      "effectiveGasPrice": "0x5acdcfbc00",
      "from": "0xd1b156294afa63d7d174d06d5a83e547d7a5aba9",
      "to": "0xa53a31b1fa483dec156575efbd0233c3bb14f54e",
      "contractAddress": "0xa53a31b1fa483dec156575efbd0233c3bb14f54e",
      "root": "0x56e81f171bcc55a6ff8345e692c0f86e5b48e01b996cadc001622fb5e363b421"
    }
  ],
  "libraries": [],
  "pending": [],
  "returns": {},
  "timestamp": 1759148732,
  "chain": 296,
  "commit": "e7bb182"
}