{
  "transactions": [
    {
      "hash": "0xfa7fbb0cdd46fc49037f1151a4941b3f50bcdd3c29c19f559b2e7233528df21a",
      "transactionType": "CALL",
      "contractName": null,
      "contractAddress": "0xa53a31b1fa483dec156575efbd0233c3bb14f54e",
      "function": "setKYCStatus(address,bool)",
      "arguments": [
        "0x74189ff22BF4aa4a5CEc193405ed125b48EaC478",
        "true"
      ],
      "transaction": {
        "from": "0xd1b156294afa63d7d174d06d5a83e547d7a5aba9",
        "to": "0xa53a31b1fa483dec156575efbd0233c3bb14f54e",
        "gas": "0x17c04",
        "value": "0x0",
        "input": "0xa3f569ae00000000000000000000000074189ff22bf4aa4a5cec193405ed125b48eac4780000000000000000000000000000000000000000000000000000000000000001",
        "nonce": "0x5b",
        "chainId": "0x128"
      },
      "additionalContracts": [],
      "isFixedGasLimit": false
    }
  ],
  "receipts": [
    {
      "status": "0x1",
      "cumulativeGasUsed": "0x13004",
      "logs": [
        {
          "address": "0xa53a31b1fa483dec156575efbd0233c3bb14f54e",
          "topics": [
            "0x7abd35ff33891ab3686be6791d9262c0aace8d89f28fcf30262d6e1e06f60cb4",
            "0x00000000000000000000000074189ff22bf4aa4a5cec193405ed125b48eac478"
          ],
          "data": "0x00000000000000000000000000000000000000000000000000000000000000010000000000000000000000000000000000000000000000000000000068da8312",
          "blockHash": "0x5e9108a752b20c65efe29890ff8606ef20324589e8f541f9ce75e73c1ce386cd",
          "blockNumber": "0x185e626",
          "transactionHash": "0xfa7fbb0cdd46fc49037f1151a4941b3f50bcdd3c29c19f559b2e7233528df21a",
          "transactionIndex": "0x9",
          "logIndex": "0x0",
          "removed": false
        }
      ],
      "logsBloom": "0x00000000000000800000000000000000000000000000000000000000000004000000000020400000000000000000000000000000000080000000000000000000000000000000000000002000000000000000000000000000000000000000000000000000000000000000000000000000000000000000000000000000000000800000000000000000000000000000000000000000000000000000000000000000000000000000000000000000000000000000000000000000000000000000000000000000000000000000000000000000000000041000000000000000000000000000000000000000000000000000000000000000000000000000000000000000",
      "type": "0x0",
      "transactionHash": "0xfa7fbb0cdd46fc49037f1151a4941b3f50bcdd3c29c19f559b2e7233528df21a",
      "transactionIndex": "0x9",
      "blockHash": "0x5e9108a752b20c65efe29890ff8606ef20324589e8f541f9ce75e73c1ce386cd",
      "blockNumber": "0x185e626",
      "gasUsed": "0x13004",
      "effectiveGasPrice": "0x5acdcfbc00",
      "from": "0xd1b156294afa63d7d174d06d5a83e547d7a5aba9",
      "to": "0xa53a31b1fa483dec156575efbd0233c3bb14f54e",
      "contractAddress": "0xa53a31b1fa483dec156575efbd0233c3bb14f54e",
      "root": "0x56e81f171bcc55a6ff8345e692c0f86e5b48e01b996cadc001622fb5e363b421"
    }
  ],
  "libraries": [],
  "pending": [],
  "returns": {},
  "timestamp": 1759150871,
  "chain": 296,
  "commit": "e7bb182"
}