{
  "transactions": [
    {
      "hash": "0x44246c040aadad5eb382122f59373af5c3df52c7ef3118ee861d5e8cb31d5f11",
      "transactionType": "CALL",
      "contractName": null,
      "contractAddress": "0xbf2a7704d5ddf17ddd9cb8e91ea52bb8593315b0",
      "function": "approve(address,uint256)",
      "arguments": [
        "0x74189ff22BF4aa4a5CEc193405ed125b48EaC478",
        "10000000000000000000000"
      ],
      "transaction": {
        "from": "0xd1b156294afa63d7d174d06d5a83e547d7a5aba9",
        "to": "0xbf2a7704d5ddf17ddd9cb8e91ea52bb8593315b0",
        "gas": "0x9e66",
        "value": "0x0",
        "input": "0x095ea7b300000000000000000000000074189ff22bf4aa4a5cec193405ed125b48eac47800000000000000000000000000000000000000000000021e19e0c9bab2400000",
        "nonce": "0x5d",
        "chainId": "0x128"
      },
      "additionalContracts": [],
      "isFixedGasLimit": false
    }
  ],
  "receipts": [
    {
      "status": "0x1",
      "cumulativeGasUsed": "0x42838",
      "logs": [
        {
          "address": "0xbf2a7704d5ddf17ddd9cb8e91ea52bb8593315b0",
          "topics": [
            "0x8c5be1e5ebec7d5bd14f71427d1e84f3dd0314c0f7b2291e5b200ac8c7c3b925",
            "0x000000000000000000000000d1b156294afa63d7d174d06d5a83e547d7a5aba9",
            "0x00000000000000000000000074189ff22bf4aa4a5cec193405ed125b48eac478"
          ],
          "data": "0x00000000000000000000000000000000000000000000021e19e0c9bab2400000",
          "blockHash": "0x4c91f3d3916001903ebaa13f8bc4d069b87b1ac2c5e48a9a73d1861a6901c9d5",
          "blockNumber": "0x185e76c",
          "transactionHash": "0x44246c040aadad5eb382122f59373af5c3df52c7ef3118ee861d5e8cb31d5f11",
          "transactionIndex": "0x3",
          "logIndex": "0x1",
          "removed": false
        }
      ],
      "logsBloom": "0x20000000000000000000000000000000000000000000000008000000000000000000000020400000000000000000000000000000000080000000000000200000000000000000000000000000000000000000000000000000000000000000000000000000000000000000010000000000000000000000000000000000080000000000000000000000400000000000000000000000000000000000000000000000020000000000000000000000000000000000000000000000000000000000000000000000000000000000000000000000000000000000020000000000000000000010000000000000000000000000000000000000000000000000000000000000",
      "type": "0x0",
      "transactionHash": "0x44246c040aadad5eb382122f59373af5c3df52c7ef3118ee861d5e8cb31d5f11",
      "transactionIndex": "0x3",
      "blockHash": "0x4c91f3d3916001903ebaa13f8bc4d069b87b1ac2c5e48a9a73d1861a6901c9d5",
      "blockNumber": "0x185e76c",
      "gasUsed": "0x7eb8",
      "effectiveGasPrice": "0x5acdcfbc00",
      "from": "0xd1b156294afa63d7d174d06d5a83e547d7a5aba9",
      "to": "0xbf2a7704d5ddf17ddd9cb8e91ea52bb8593315b0",
      "contractAddress": "0xbf2a7704d5ddf17ddd9cb8e91ea52bb8593315b0",
      "root": "0x56e81f171bcc55a6ff8345e692c0f86e5b48e01b996cadc001622fb5e363b421"
    }
  ],
  "libraries": [],
  "pending": [],
  "returns": {},
  "timestamp": 1759151524,
  "chain": 296,
  "commit": "e7bb182"
}