{
  "transactions": [
    {
      "hash": "0x8cf429bde5a6f7aafdb7c75bf183fbabe7b27b9a808c813127585dc5ec737c9d",
      "transactionType": "CALL",
      "contractName": null,
      "contractAddress": "0x9e3cf47cb63f33ba726985537097ba04a18e1bf0",
      "function": "distributeTokens(uint256,address,uint256)",
      "arguments": [
        "2",
        "0xD1B156294aFa63d7d174D06D5A83e547d7a5abA9",
        "50000000000000000000000"
      ],
      "transaction": {
        "from": "0xd1b156294afa63d7d174d06d5a83e547d7a5aba9",
        "to": "0x9e3cf47cb63f33ba726985537097ba04a18e1bf0",
        "gas": "0x8c874",
        "value": "0x0",
        "input": "0x8a5296330000000000000000000000000000000000000000000000000000000000000002000000000000000000000000d1b156294afa63d7d174d06d5a83e547d7a5aba9000000000000000000000000000000000000000000000a968163f0a57b400000",
        "nonce": "0x60",
        "chainId": "0x128"
      },
      "additionalContracts": [],
      "isFixedGasLimit": false
    }
  ],
  "receipts": [
    {
      "status": "0x1",
      "cumulativeGasUsed": "0x706c4",
      "logs": [
        {
          "address": "0x98c7dc4133504eb4e89601adf07128e5998ab381",
          "topics": [
            "0xddf252ad1be2c89b69c2b068fc378daa952ba7f163c4a11628f55a4df523b3ef",
            "0x0000000000000000000000009e3cf47cb63f33ba726985537097ba04a18e1bf0",
            "0x000000000000000000000000d1b156294afa63d7d174d06d5a83e547d7a5aba9"
          ],
          "data": "0x000000000000000000000000000000000000000000000a968163f0a57b400000",
          "blockHash": "0x9d9db58fdf142247df7d58afb121cf022f9ae31c209b879c61bb3757739c4716",
          "blockNumber": "0x185e933",
          "transactionHash": "0x8cf429bde5a6f7aafdb7c75bf183fbabe7b27b9a808c813127585dc5ec737c9d",
          "transactionIndex": "0x6",
          "logIndex": "0x0",
          "removed": false
        },
        {
          "address": "0x6d02419484f0587d21a27600048826da8ee9d155",
          "topics": [
            "0xe4b25ac9e5d0cb3673655cd0cde16c7f8cd681c34f02fb0c6b5143f83fe85534",
            "0x0000000000000000000000009e3cf47cb63f33ba726985537097ba04a18e1bf0",
            "0x00000000000000000000000098c7dc4133504eb4e89601adf07128e5998ab381"
          ],
          "data": "0x0000000000000000000000000000000000000000000000000000000000000000000000000000000000000000000000000000000000005f4a8c8375d155400000",
          "blockHash": "0x9d9db58fdf142247df7d58afb121cf022f9ae31c209b879c61bb3757739c4716",
          "blockNumber": "0x185e933",
          "transactionHash": "0x8cf429bde5a6f7aafdb7c75bf183fbabe7b27b9a808c813127585dc5ec737c9d",
          "transactionIndex": "0x6",
          "logIndex": "0x1",
          "removed": false
        },
        {
          "address": "0x6d02419484f0587d21a27600048826da8ee9d155",
          "topics": [
            "0xe4b25ac9e5d0cb3673655cd0cde16c7f8cd681c34f02fb0c6b5143f83fe85534",
            "0x000000000000000000000000d1b156294afa63d7d174d06d5a83e547d7a5aba9",
            "0x00000000000000000000000098c7dc4133504eb4e89601adf07128e5998ab381"
          ],
          "data": "0x0000000000000000000000000000000000000000000000000000000000000000000000000000000000000000000000000000000000000a968163f0a57b400000",
          "blockHash": "0x9d9db58fdf142247df7d58afb121cf022f9ae31c209b879c61bb3757739c4716",
          "blockNumber": "0x185e933",
          "transactionHash": "0x8cf429bde5a6f7aafdb7c75bf183fbabe7b27b9a808c813127585dc5ec737c9d",
          "transactionIndex": "0x6",
          "logIndex": "0x2",
          "removed": false
        },
        {
          "address": "0x9e3cf47cb63f33ba726985537097ba04a18e1bf0",
          "topics": [
            "0xb8bd97753f33619a3d40bd37523d90e68ffcecd3da1cc8076c0d1e02a8272c8e",
            "0x0000000000000000000000000000000000000000000000000000000000000002",
            "0x000000000000000000000000d1b156294afa63d7d174d06d5a83e547d7a5aba9"
          ],
          "data": "0x000000000000000000000000000000000000000000000a968163f0a57b400000",
          "blockHash": "0x9d9db58fdf142247df7d58afb121cf022f9ae31c209b879c61bb3757739c4716",
          "blockNumber": "0x185e933",
          "transactionHash": "0x8cf429bde5a6f7aafdb7c75bf183fbabe7b27b9a808c813127585dc5ec737c9d",
          "transactionIndex": "0x6",
          "logIndex": "0x3",
          "removed": false
        }
      ],
      "logsBloom": "0x04100000000000000000000000000000000000000001000000000000000000400000000000000700000000040000000001000000000000000000000000000000000400000108000000000028000000000000020000000000000000000000000000000000000000000000004000000000000000000000000000000010080000000000000000000000400000000000000200000000000000000000000000000000000000000000000000000100000000001000000000000000000000000000000000004002000000000000000000000000000000000000020000000000008000000000000000000080000000000100000000000000008000100000000000000000",
      "type": "0x0",
      "transactionHash": "0x8cf429bde5a6f7aafdb7c75bf183fbabe7b27b9a808c813127585dc5ec737c9d",
      "transactionIndex": "0x6",
      "blockHash": "0x9d9db58fdf142247df7d58afb121cf022f9ae31c209b879c61bb3757739c4716",
      "blockNumber": "0x185e933",
      "gasUsed": "0x706c4",
      "effectiveGasPrice": "0x5acdcfbc00",
      "from": "0xd1b156294afa63d7d174d06d5a83e547d7a5aba9",
      "to": "0x9e3cf47cb63f33ba726985537097ba04a18e1bf0",
      "contractAddress": "0x9e3cf47cb63f33ba726985537097ba04a18e1bf0",
      "root": "0x56e81f171bcc55a6ff8345e692c0f86e5b48e01b996cadc001622fb5e363b421"
    }
  ],
  "libraries": [],
  "pending": [],
  "returns": {},
  "timestamp": 1759152434,
  "chain": 296,
  "commit": "e7bb182"
}