{
  "transactions": [
    {
      "hash": "0xe4d357c4b82de2f3c730c764470b0e168151d7900e637333dad1e5c111ef2883",
      "transactionType": "CALL",
      "contractName": null,
      "contractAddress": "0x32380684b47091963b39910eb6f1f8714493e785",
      "function": "setAuthorizedUpdater(address,bool)",
      "arguments": [
        "0xb30B7EA3FA7A91984390e16f8EFb7eEffE0Fa8a7",
        "true"
      ],
      "transaction": {
        "from": "0xd1b156294afa63d7d174d06d5a83e547d7a5aba9",
        "to": "0x32380684b47091963b39910eb6f1f8714493e785",
        "gas": "0x131b9",
        "value": "0x0",
        "input": "0x99fc65d4000000000000000000000000b30b7ea3fa7a91984390e16f8efb7eeffe0fa8a70000000000000000000000000000000000000000000000000000000000000001",
        "nonce": "0x7d",
        "chainId": "0x128"
      },
      "additionalContracts": [],
      "isFixedGasLimit": false
    }
  ],
  "receipts": [
    {
      "status": "0x1",
      "cumulativeGasUsed": "0xd10b",
      "logs": [
        {
          "address": "0x32380684b47091963b39910eb6f1f8714493e785",
          "topics": [
            "0x0b820fe6cf998498ff3199cab21fb6482c7a422cbdf4ea7e8f1d390405889985",
            "0x000000000000000000000000b30b7ea3fa7a91984390e16f8efb7eeffe0fa8a7"
          ],
          "data": "0x0000000000000000000000000000000000000000000000000000000000000001",
          "blockHash": "0x78990f04738eb970cd543052c432f5b33fbe0f71a8edcbeddedc3d2d8915f78c",
          "blockNumber": "0x19795a4",
          "blockTimestamp": "0x68fde306",
          "transactionHash": "0xe4d357c4b82de2f3c730c764470b0e168151d7900e637333dad1e5c111ef2883",
          "transactionIndex": "0x7",
          "logIndex": "0x0",
          "removed": false
        }
      ],
      "logsBloom": "0x00000000000000002000000000000000000000000000000000000000000000000000000000800000000000000000000000000000000000000000000000000000000000000000000000000000000000000000000000000000000002000000000000000000000000000000000000000000000000004000000000000000000000000000000000000000000000000000000000000000000000000000000000000000000000000000000000000000000000000000000000000000000000000000000000000000000000000000000020000010000000000000000000000000000000000000000000000000000000000002000000000002000000000020000000000000",
      "type": "0x0",
      "transactionHash": "0xe4d357c4b82de2f3c730c764470b0e168151d7900e637333dad1e5c111ef2883",
      "transactionIndex": "0x7",
      "blockHash": "0x78990f04738eb970cd543052c432f5b33fbe0f71a8edcbeddedc3d2d8915f78c",
      "blockNumber": "0x19795a4",
      "gasUsed": "0xd10b",
      "effectiveGasPrice": "0x721646a400",
      "from": "0xd1b156294afa63d7d174d06d5a83e547d7a5aba9",
      "to": "0x32380684b47091963b39910eb6f1f8714493e785",
      "contractAddress": "0x32380684b47091963b39910eb6f1f8714493e785",
      "root": "0x56e81f171bcc55a6ff8345e692c0f86e5b48e01b996cadc001622fb5e363b421"
    }
  ],
  "libraries": [],
  "pending": [],
  "returns": {},
  "timestamp": 1761469195,
  "chain": 296,
  "commit": "ab599d8"
}