{
  "transactions": [
    {
      "hash": "0xd483eb3d284e7d4aabe16aa0cfd51b6691504526c1c882aed63ec6671037c5a9",
      "transactionType": "CALL",
      "contractName": null,
      "contractAddress": "0x6d02419484f0587d21a27600048826da8ee9d155",
      "function": "setAuthorizedUpdater(address,bool)",
      "arguments": [
        "0x9e3CF47Cb63f33BA726985537097bA04a18E1bF0",
        "true"
      ],
      "transaction": {
        "from": "0xd1b156294afa63d7d174d06d5a83e547d7a5aba9",
        "to": "0x6d02419484f0587d21a27600048826da8ee9d155",
        "gas": "0x131b9",
        "value": "0x0",
        "input": "0x99fc65d40000000000000000000000009e3cf47cb63f33ba726985537097ba04a18e1bf00000000000000000000000000000000000000000000000000000000000000001",
        "nonce": "0x4f",
        "chainId": "0x128"
      },
      "additionalContracts": [],
      "isFixedGasLimit": false
    }
  ],
  "receipts": [
    {
      "status": "0x1",
      "cumulativeGasUsed": "0xf494",
      "logs": [
        {
          "address": "0x6d02419484f0587d21a27600048826da8ee9d155",
          "topics": [
            "0x0b820fe6cf998498ff3199cab21fb6482c7a422cbdf4ea7e8f1d390405889985",
            "0x0000000000000000000000009e3cf47cb63f33ba726985537097ba04a18e1bf0"
          ],
          "data": "0x0000000000000000000000000000000000000000000000000000000000000001",
          "blockHash": "0x6df168ea2f902979b793ada3da8ce6af20bded236a024aa347e6e836067df90d",
          "blockNumber": "0x185e1e0",
          "transactionHash": "0xd483eb3d284e7d4aabe16aa0cfd51b6691504526c1c882aed63ec6671037c5a9",
          "transactionIndex": "0x6",
          "logIndex": "0x0",
          "removed": false
        }
      ],
      "logsBloom": "0x00000000000000000000000000000000000000000000000000000000000000400000000000000000000000000000000000000000000000000000000000000000000000000000000000000020000000000000000000000000000002000000000000000000000000000000004000000000000000000000000000000000000000000000000000000000000000000000000000000000000000000000000000000000000000000000000000000000000000000000000000000000000000000000000000004000000000000000000000000010000000000000000000000000008000000000000000000000000000000000000000000002000000100000000000000000",
      "type": "0x0",
      "transactionHash": "0xd483eb3d284e7d4aabe16aa0cfd51b6691504526c1c882aed63ec6671037c5a9",
      "transactionIndex": "0x6",
      "blockHash": "0x6df168ea2f902979b793ada3da8ce6af20bded236a024aa347e6e836067df90d",
      "blockNumber": "0x185e1e0",
      "gasUsed": "0xf494",
      "effectiveGasPrice": "0x5acdcfbc00",
      "from": "0xd1b156294afa63d7d174d06d5a83e547d7a5aba9",
      "to": "0x6d02419484f0587d21a27600048826da8ee9d155",
      "contractAddress": "0x6d02419484f0587d21a27600048826da8ee9d155",
      "root": "0x56e81f171bcc55a6ff8345e692c0f86e5b48e01b996cadc001622fb5e363b421"
    }
  ],
  "libraries": [],
  "pending": [],
  "returns": {},
  "timestamp": 1759148683,
  "chain": 296,
  "commit": "e7bb182"
}