{
  "transactions": [
    {
      "hash": "0x0869e7724b9fd0f94d10ec6bb56208cc471da4d3b27301afe35d5da4385309a2",
      "transactionType": "CALL",
      "contractName": null,
      "contractAddress": "0x4eb9f441ea43141572bc49a4e8fdf53f44b5c99c",
      "function": "setAuthorizedUpdater(address,bool)",
      "arguments": [
        "0x2Bfd94dF84EdC5967dBa23b26106B7ab6D32E14c",
        "true"
      ],
      "transaction": {
        "from": "0xd1b156294afa63d7d174d06d5a83e547d7a5aba9",
        "to": "0x4eb9f441ea43141572bc49a4e8fdf53f44b5c99c",
        "gas": "0x131b9",
        "value": "0x0",
        "input": "0x99fc65d40000000000000000000000002bfd94df84edc5967dba23b26106b7ab6d32e14c0000000000000000000000000000000000000000000000000000000000000001",
        "nonce": "0xa2",
        "chainId": "0x128"
      },
      "additionalContracts": [],
      "isFixedGasLimit": false
    }
  ],
  "receipts": [
    {
      "status": "0x1",
      "cumulativeGasUsed": "0xd10b",
      "logs": [
        {
          "address": "0x4eb9f441ea43141572bc49a4e8fdf53f44b5c99c",
          "topics": [
            "0x0b820fe6cf998498ff3199cab21fb6482c7a422cbdf4ea7e8f1d390405889985",
            "0x0000000000000000000000002bfd94df84edc5967dba23b26106b7ab6d32e14c"
          ],
          "data": "0x0000000000000000000000000000000000000000000000000000000000000001",
          "blockHash": "0x0dcb37154a05c7cd6e49517eeb2f0d8ac4fd362ca79ce9ad95769008304dc403",
          "blockNumber": "0x197b1c5",
          "blockTimestamp": "0x68fe1b48",
          "transactionHash": "0x0869e7724b9fd0f94d10ec6bb56208cc471da4d3b27301afe35d5da4385309a2",
          "transactionIndex": "0x0",
          "logIndex": "0x0",
          "removed": false
        }
      ],
      "logsBloom": "0x00000000000000000000001000000002000000000000000000000000000000000000000000000000002000000000000000000000000000000000000000000000000000000000000000000000000000000000000000400000000002000000000000000000000000000002000000000000000000000000000000000000000000000000000000000000000000000000000000000000000000000000000000000000000000000000000000000000000000000000000000000000000000000000000000000000000000000000000000000010000000000000000000000000000000000000000002000000000000000000000000000002000000000000000000000000",
      "type": "0x0",
      "transactionHash": "0x0869e7724b9fd0f94d10ec6bb56208cc471da4d3b27301afe35d5da4385309a2",
      "transactionIndex": "0x0",
      "blockHash": "0x0dcb37154a05c7cd6e49517eeb2f0d8ac4fd362ca79ce9ad95769008304dc403",
      "blockNumber": "0x197b1c5",
      "gasUsed": "0xd10b",
      "effectiveGasPrice": "0x6fc23ac000",
      "from": "0xd1b156294afa63d7d174d06d5a83e547d7a5aba9",
      "to": "0x4eb9f441ea43141572bc49a4e8fdf53f44b5c99c",
      "contractAddress": "0x4eb9f441ea43141572bc49a4e8fdf53f44b5c99c",
      "root": "0x56e81f171bcc55a6ff8345e692c0f86e5b48e01b996cadc001622fb5e363b421"
    }
  ],
  "libraries": [],
  "pending": [],
  "returns": {},
  "timestamp": 1761483596,
  "chain": 296,
  "commit": "ab599d8"
}