{
  "transactions": [
    {
      "hash": "0x0285bf4467039cb5b870981f993803924974e7964686d385f6e20233f0de992a",
      "transactionType": "CALL",
      "contractName": null,
      "contractAddress": "0xa53a31b1fa483dec156575efbd0233c3bb14f54e",
      "function": "setKYCStatus(address,bool)",
      "arguments": [
        "0xD1B156294aFa63d7d174D06D5A83e547d7a5abA9",
        "true"
      ],
      "transaction": {
        "from": "0xd1b156294afa63d7d174d06d5a83e547d7a5aba9",
        "to": "0xa53a31b1fa483dec156575efbd0233c3bb14f54e",
        "gas": "0x17c04",
        "value": "0x0",
        "input": "0xa3f569ae000000000000000000000000d1b156294afa63d7d174d06d5a83e547d7a5aba90000000000000000000000000000000000000000000000000000000000000001",
        "nonce": "0x54",
        "chainId": "0x128"
      },
      "additionalContracts": [],
      "isFixedGasLimit": false
    }
  ],
  "receipts": [
    {
      "status": "0x1",
      "cumulativeGasUsed": "0x13004",
      "logs": [
        {
          "address": "0xa53a31b1fa483dec156575efbd0233c3bb14f54e",
          "topics": [
            "0x7abd35ff33891ab3686be6791d9262c0aace8d89f28fcf30262d6e1e06f60cb4",
            "0x000000000000000000000000d1b156294afa63d7d174d06d5a83e547d7a5aba9"
          ],
          "data": "0x00000000000000000000000000000000000000000000000000000000000000010000000000000000000000000000000000000000000000000000000068da7b75",
          "blockHash": "0x3613308b05d8cce7b33a86106b05c506efffffe893d938985a6e140a5f39ab39",
          "blockNumber": "0x185e258",
          "transactionHash": "0x0285bf4467039cb5b870981f993803924974e7964686d385f6e20233f0de992a",
          "transactionIndex": "0x1",
          "logIndex": "0x0",
          "removed": false
        }
      ],
      "logsBloom": "0x00000000000000800000000000000000000000000000000000000000000004000000000000000000000000000000000000000000000000000000000000000000000000000000000000002000000000000000000000000000000000000000000000000000000000000000000000000000000000000000000000000000080000800000000000000000400000000000000000000000000000000000000000000000000000000000000000000000000000000000000000000000000000000000000000000000000000000000000000000000000000041000020000000000000000000000000000000000000000000000000000000000000000000000000000000000",
      "type": "0x0",
      "transactionHash": "0x0285bf4467039cb5b870981f993803924974e7964686d385f6e20233f0de992a",
      "transactionIndex": "0x1",
      "blockHash": "0x3613308b05d8cce7b33a86106b05c506efffffe893d938985a6e140a5f39ab39",
      "blockNumber": "0x185e258",
      "gasUsed": "0x13004",
      "effectiveGasPrice": "0x5acdcfbc00",
      "from": "0xd1b156294afa63d7d174d06d5a83e547d7a5aba9",
      "to": "0xa53a31b1fa483dec156575efbd0233c3bb14f54e",
      "contractAddress": "0xa53a31b1fa483dec156575efbd0233c3bb14f54e",
      "root": "0x56e81f171bcc55a6ff8345e692c0f86e5b48e01b996cadc001622fb5e363b421"
    }
  ],
  "libraries": [],
  "pending": [],
  "returns": {},
  "timestamp": 1759148924,
  "chain": 296,
  "commit": "e7bb182"
}