{
  "transactions": [
    {
      "hash": "0xd89f0b5f82526d97cb12eb8630816ef382876b6052aee3b152d2899f7f9857a5",
      "transactionType": "CALL",
      "contractName": null,
      "contractAddress": "0x1778a0ce19f7d4b693176ffb8d5ab295cfc54a48",
      "function": "setKYCStatus(address,bool)",
      "arguments": [
        "0xD1B156294aFa63d7d174D06D5A83e547d7a5abA9",
        "true"
      ],
      "transaction": {
        "from": "0xd1b156294afa63d7d174d06d5a83e547d7a5aba9",
        "to": "0x1778a0ce19f7d4b693176ffb8d5ab295cfc54a48",
        "gas": "0x17c04",
        "value": "0x0",
        "input": "0xa3f569ae000000000000000000000000d1b156294afa63d7d174d06d5a83e547d7a5aba90000000000000000000000000000000000000000000000000000000000000001",
        "nonce": "0x82",
        "chainId": "0x128"
      },
      "additionalContracts": [],
      "isFixedGasLimit": false
    }
  ],
  "receipts": [
    {
      "status": "0x1",
      "cumulativeGasUsed": "0x11320",
      "logs": [
        {
          "address": "0x1778a0ce19f7d4b693176ffb8d5ab295cfc54a48",
          "topics": [
            "0x7abd35ff33891ab3686be6791d9262c0aace8d89f28fcf30262d6e1e06f60cb4",
            "0x000000000000000000000000d1b156294afa63d7d174d06d5a83e547d7a5aba9"
          ],
          "data": "0x00000000000000000000000000000000000000000000000000000000000000010000000000000000000000000000000000000000000000000000000068fde3e9",
          "blockHash": "0x06b9e9d9ccec806bad16b77fcb4618890727bc5b563ac3ba172e6319f0e92160",
          "blockNumber": "0x1979616",
          "blockTimestamp": "0x68fde3ea",
          "transactionHash": "0xd89f0b5f82526d97cb12eb8630816ef382876b6052aee3b152d2899f7f9857a5",
          "transactionIndex": "0x1",
          "logIndex": "0x0",
          "removed": false
        }
      ],
      "logsBloom": "0x00000000000000800000000000000000000000000000000000000000000000000000000000000001000000000000000000000000000000001000000000000000000000000000000000002000000000000000000000000000000000000000000000000000000000000000000000000000000000000000000000000000080000000040000000000000400000000000000000000000000000000000000000000000000000000000000000000000000000000000000000000000000000000000000000000000000000000000000000000000000000001000020000000000000000000000000000000000000000000000000000000000000000000000000000000000",
      "type": "0x0",
      "transactionHash": "0xd89f0b5f82526d97cb12eb8630816ef382876b6052aee3b152d2899f7f9857a5",
      "transactionIndex": "0x1",
      "blockHash": "0x06b9e9d9ccec806bad16b77fcb4618890727bc5b563ac3ba172e6319f0e92160",
      "blockNumber": "0x1979616",
      "gasUsed": "0x11320",
      "effectiveGasPrice": "0x6fc23ac000",
      "from": "0xd1b156294afa63d7d174d06d5a83e547d7a5aba9",
      "to": "0x1778a0ce19f7d4b693176ffb8d5ab295cfc54a48",
      "contractAddress": "0x1778a0ce19f7d4b693176ffb8d5ab295cfc54a48",
      "root": "0x56e81f171bcc55a6ff8345e692c0f86e5b48e01b996cadc001622fb5e363b421"
    }
  ],
  "libraries": [],
  "pending": [],
  "returns": {},
  "timestamp": 1761469424,
  "chain": 296,
  "commit": "ab599d8"
}