{
  "transactions": [
    {
      "hash": "0xb9fae76e4c430da43899dfc0fe4fa48c2bed08d668b8ce5a65cd72788909ec9a",
      "transactionType": "CALL",
      "contractName": null,
      "contractAddress": "0x0ac883919df550f6a16b42af9a04d4900fb38ea0",
      "function": "setKYCStatus(address,bool)",
      "arguments": [
        "0xD1B156294aFa63d7d174D06D5A83e547d7a5abA9",
        "true"
      ],
      "transaction": {
        "from": "0xd1b156294afa63d7d174d06d5a83e547d7a5aba9",
        "to": "0x0ac883919df550f6a16b42af9a04d4900fb38ea0",
        "gas": "0x17c04",
        "value": "0x0",
        "input": "0xa3f569ae000000000000000000000000d1b156294afa63d7d174d06d5a83e547d7a5aba90000000000000000000000000000000000000000000000000000000000000001",
        "nonce": "0x6c",
        "chainId": "0x128"
      },
      "additionalContracts": [],
      "isFixedGasLimit": false
    }
  ],
  "receipts": [
    {
      "status": "0x1",
      "cumulativeGasUsed": "0x11320",
      "logs": [
        {
          "address": "0x0ac883919df550f6a16b42af9a04d4900fb38ea0",
          "topics": [
            "0x7abd35ff33891ab3686be6791d9262c0aace8d89f28fcf30262d6e1e06f60cb4",
            "0x000000000000000000000000d1b156294afa63d7d174d06d5a83e547d7a5aba9"
          ],
          "data": "0x00000000000000000000000000000000000000000000000000000000000000010000000000000000000000000000000000000000000000000000000068fdb1c4",
          "blockHash": "0x2634d27302dc0219804274d04d93c9d83e50ac583404b2ea3809b301f4c8351b",
          "blockNumber": "0x1977d03",
          "blockTimestamp": "0x68fdb1c4",
          "transactionHash": "0xb9fae76e4c430da43899dfc0fe4fa48c2bed08d668b8ce5a65cd72788909ec9a",
          "transactionIndex": "0xb",
          "logIndex": "0x0",
          "removed": false
        }
      ],
      "logsBloom": "0x00000000000000800000000000000000000000000000000000000000000000000000000000000000000000000000000000000000000000000000000000000000000000000000000000002000000000000000000008000000000000000000000000000000000000000000000000000000000000000000000000000000080000000000000000000000400000000000000000000000000000000000000000000000000000000000000000000000000000000000000000000000004000000000000000010000000000000000000000000000000000001000020000000000000000000000000000000000000000000000000000000000000000000000000000000000",
      "type": "0x0",
      "transactionHash": "0xb9fae76e4c430da43899dfc0fe4fa48c2bed08d668b8ce5a65cd72788909ec9a",
      "transactionIndex": "0xb",
      "blockHash": "0x2634d27302dc0219804274d04d93c9d83e50ac583404b2ea3809b301f4c8351b",
      "blockNumber": "0x1977d03",
      "gasUsed": "0x11320",
      "effectiveGasPrice": "0x721646a400",
      "from": "0xd1b156294afa63d7d174d06d5a83e547d7a5aba9",
      "to": "0x0ac883919df550f6a16b42af9a04d4900fb38ea0",
      "contractAddress": "0x0ac883919df550f6a16b42af9a04d4900fb38ea0",
      "root": "0x56e81f171bcc55a6ff8345e692c0f86e5b48e01b996cadc001622fb5e363b421"
    }
  ],
  "libraries": [],
  "pending": [],
  "returns": {},
  "timestamp": 1761456585,
  "chain": 296,
  "commit": "ab599d8"
}