{
  "transactions": [
    {
      "hash": "0xf4b17646cec52a721f812f2429a308aa69886e8cedb5037d51fde1d75854a813",
      "transactionType": "CALL",
      "contractName": null,
      "contractAddress": "0x74189ff22bf4aa4a5cec193405ed125b48eac478",
      "function": "createListing(address,uint256,uint256)",
      "arguments": [
        "0x98c7dC4133504eB4E89601aDf07128e5998ab381",
        "20000000000000000000000",
        "7500000000000000"
      ],
      "transaction": {
        "from": "0xd1b156294afa63d7d174d06d5a83e547d7a5aba9",
        "to": "0x74189ff22bf4aa4a5cec193405ed125b48eac478",
        "gas": "0x8fa70",
        "value": "0x0",
        "input": "0x24780c5600000000000000000000000098c7dc4133504eb4e89601adf07128e5998ab38100000000000000000000000000000000000000000000043c33c1937564800000000000000000000000000000000000000000000000000000001aa535d3d0c000",
        "nonce": "0x62",
        "chainId": "0x128"
      },
      "additionalContracts": [],
      "isFixedGasLimit": false
    }
  ],
  "receipts": [
    {
      "status": "0x1",
      "cumulativeGasUsed": "0x72ec0",
      "logs": [
        {
          "address": "0x98c7dc4133504eb4e89601adf07128e5998ab381",
          "topics": [
            "0xddf252ad1be2c89b69c2b068fc378daa952ba7f163c4a11628f55a4df523b3ef",
            "0x000000000000000000000000d1b156294afa63d7d174d06d5a83e547d7a5aba9",
            "0x00000000000000000000000074189ff22bf4aa4a5cec193405ed125b48eac478"
          ],
          "data": "0x00000000000000000000000000000000000000000000043c33c1937564800000",
          "blockHash": "0xba43e4ce55631ae5074a4e154c91a6518217288d250d46779aa2104086469374",
          "blockNumber": "0x185e96a",
          "transactionHash": "0xf4b17646cec52a721f812f2429a308aa69886e8cedb5037d51fde1d75854a813",
          "transactionIndex": "0xb",
          "logIndex": "0x0",
          "removed": false
        },
        {
          "address": "0x6d02419484f0587d21a27600048826da8ee9d155",
          "topics": [
            "0xe4b25ac9e5d0cb3673655cd0cde16c7f8cd681c34f02fb0c6b5143f83fe85534",
            "0x000000000000000000000000d1b156294afa63d7d174d06d5a83e547d7a5aba9",
            "0x00000000000000000000000098c7dc4133504eb4e89601adf07128e5998ab381"
          ],
          "data": "0x000000000000000000000000000000000000000000000a968163f0a57b40000000000000000000000000000000000000000000000000065a4da25d3016c00000",
          "blockHash": "0xba43e4ce55631ae5074a4e154c91a6518217288d250d46779aa2104086469374",
          "blockNumber": "0x185e96a",
          "transactionHash": "0xf4b17646cec52a721f812f2429a308aa69886e8cedb5037d51fde1d75854a813",
          "transactionIndex": "0xb",
          "logIndex": "0x1",
          "removed": false
        },
        {
          "address": "0x6d02419484f0587d21a27600048826da8ee9d155",
          "topics": [
            "0xe4b25ac9e5d0cb3673655cd0cde16c7f8cd681c34f02fb0c6b5143f83fe85534",
            "0x00000000000000000000000074189ff22bf4aa4a5cec193405ed125b48eac478",
            "0x00000000000000000000000098c7dc4133504eb4e89601adf07128e5998ab381"
          ],
          "data": "0x000000000000000000000000000000000000000000000000000000000000000000000000000000000000000000000000000000000000043c33c1937564800000",
          "blockHash": "0xba43e4ce55631ae5074a4e154c91a6518217288d250d46779aa2104086469374",
          "blockNumber": "0x185e96a",
          "transactionHash": "0xf4b17646cec52a721f812f2429a308aa69886e8cedb5037d51fde1d75854a813",
          "transactionIndex": "0xb",
          "logIndex": "0x2",
          "removed": false
        },
        {
          "address": "0x74189ff22bf4aa4a5cec193405ed125b48eac478",
          "topics": [
            "0x508c75a3cb42c068e54cf9e0b738921b4e2375725c5965ef4a110475606fc05a",
            "0x0000000000000000000000000000000000000000000000000000000000000001",
            "0x000000000000000000000000d1b156294afa63d7d174d06d5a83e547d7a5aba9",
            "0x00000000000000000000000098c7dc4133504eb4e89601adf07128e5998ab381"
          ],
          "data": "0x00000000000000000000000000000000000000000000043c33c1937564800000000000000000000000000000000000000000000000000000001aa535d3d0c000",
          "blockHash": "0xba43e4ce55631ae5074a4e154c91a6518217288d250d46779aa2104086469374",
          "blockNumber": "0x185e96a",
          "transactionHash": "0xf4b17646cec52a721f812f2429a308aa69886e8cedb5037d51fde1d75854a813",
          "transactionIndex": "0xb",
          "logIndex": "0x3",
          "removed": false
        }
      ],
      "logsBloom": "0x00100000000000000000000000400000000000000001000000000000000000000000000020400200000000000000000000000000000080000000000000040000000400000108000000000028000000000000020000040000002000008000000000000000000000000000004000000000000000000000000000000010080000000000000000000000400000000000000200000000000000000000000000000000000000000000000000000000000000000000000000000000040000000000000000000002000000000000000000004000000000000000020000000000008040000000000000000080000000000000000000000000000000000000000000000008",
      "type": "0x0",
      "transactionHash": "0xf4b17646cec52a721f812f2429a308aa69886e8cedb5037d51fde1d75854a813",
      "transactionIndex": "0xb",
      "blockHash": "0xba43e4ce55631ae5074a4e154c91a6518217288d250d46779aa2104086469374",
      "blockNumber": "0x185e96a",
      "gasUsed": "0x72ec0",
      "effectiveGasPrice": "0x5acdcfbc00",
      "from": "0xd1b156294afa63d7d174d06d5a83e547d7a5aba9",
      "to": "0x74189ff22bf4aa4a5cec193405ed125b48eac478",
      "contractAddress": "0x74189ff22bf4aa4a5cec193405ed125b48eac478",
      "root": "0x56e81f171bcc55a6ff8345e692c0f86e5b48e01b996cadc001622fb5e363b421"
    }
  ],
  "libraries": [],
  "pending": [],
  "returns": {},
  "timestamp": 1759152544,
  "chain": 296,
  "commit": "e7bb182"
}