{
  "transactions": [
    {
      "hash": "0x3997dae0ba51e0e7812c07493a6b986c82dc5f2fcad7aa8c5079cce779fe18aa",
      "transactionType": "CALL",
      "contractName": null,
      "contractAddress": "0x990e1948b0ee9a147e549031c90689593dbcee5e",
      "function": "setFeeCollector(address)",
      "arguments": [
        "0xD1B156294aFa63d7d174D06D5A83e547d7a5abA9"
      ],
      "transaction": {
        "from": "0xd1b156294afa63d7d174d06d5a83e547d7a5aba9",
        "to": "0x990e1948b0ee9a147e549031c90689593dbcee5e",
        "gas": "0xb163",
        "value": "0x0",
        "input": "0xa42dce80000000000000000000000000d1b156294afa63d7d174d06d5a83e547d7a5aba9",
        "nonce": "0x81",
        "chainId": "0x128"
      },
      "additionalContracts": [],
      "isFixedGasLimit": false
    }
  ],
  "receipts": [
    {
      "status": "0x1",
      "cumulativeGasUsed": "0xf50a",
      "logs": [
        {
          "address": "0x990e1948b0ee9a147e549031c90689593dbcee5e",
          "topics": [
            "0xe5693914d19c789bdee50a362998c0bc8d035a835f9871da5d51152f0582c34f"
          ],
          "data": "0x000000000000000000000000d1b156294afa63d7d174d06d5a83e547d7a5aba9",
          "blockHash": "0x43e30b1f9791e922c25a9eca68da561303bd490de25490254b9c6e358f03a2d1",
          "blockNumber": "0x19795f4",
          "blockTimestamp": "0x68fde3a7",
          "transactionHash": "0x3997dae0ba51e0e7812c07493a6b986c82dc5f2fcad7aa8c5079cce779fe18aa",
          "transactionIndex": "0xd",
          "logIndex": "0x1",
          "removed": false
        }
      ],
      "logsBloom": "0x00000000000000000000000000000000000000000000000000000000000000000000004000000000000000000000000000000000000000000080000000000000000000000000000000000000000000000000000000000000000000000000000000000000000000400000000000000000000000000000000000000000000000000000000000000000000000000000000000000000080000000000000100000000000000000000000000000000000000000000000400000000000000000000000000000000000000000000000000000000000000000000000000000000000000000000000000000000000000000000000000000000000000000000000000000000",
      "type": "0x0",
      "transactionHash": "0x3997dae0ba51e0e7812c07493a6b986c82dc5f2fcad7aa8c5079cce779fe18aa",
      "transactionIndex": "0xd",
      "blockHash": "0x43e30b1f9791e922c25a9eca68da561303bd490de25490254b9c6e358f03a2d1",
      "blockNumber": "0x19795f4",
      "gasUsed": "0x806e",
      "effectiveGasPrice": "0x6fc23ac000",
      "from": "0xd1b156294afa63d7d174d06d5a83e547d7a5aba9",
      "to": "0x990e1948b0ee9a147e549031c90689593dbcee5e",
      "contractAddress": "0x990e1948b0ee9a147e549031c90689593dbcee5e",
      "root": "0x56e81f171bcc55a6ff8345e692c0f86e5b48e01b996cadc001622fb5e363b421"
    }
  ],
  "libraries": [],
  "pending": [],
  "returns": {},
  "timestamp": 1761469355,
  "chain": 296,
  "commit": "ab599d8"
}